{
  "contractName": "UniswapV2Router02",
  "abi": [
    {
      "inputs": [
        {
          "internalType": "address",
          "name": "_factory",
          "type": "address"
        },
        {
          "internalType": "address",
          "name": "_WTRX",
          "type": "address"
        }
      ],
      "stateMutability": "nonpayable",
      "type": "constructor"
    },
    {
      "stateMutability": "payable",
      "type": "fallback"
    },
    {
      "inputs": [],
      "name": "WTRX",
      "outputs": [
        {
          "internalType": "address",
          "name": "",
          "type": "address"
        }
      ],
      "stateMutability": "view",
      "type": "function"
    },
    {
      "inputs": [],
      "name": "factory",
      "outputs": [
        {
          "internalType": "address",
          "name": "",
          "type": "address"
        }
      ],
      "stateMutability": "view",
      "type": "function"
    },
    {
      "stateMutability": "payable",
      "type": "receive"
    },
    {
      "inputs": [
        {
          "internalType": "address",
          "name": "tokenA",
          "type": "address"
        },
        {
          "internalType": "address",
          "name": "tokenB",
          "type": "address"
        },
        {
          "internalType": "uint256",
          "name": "amountADesired",
          "type": "uint256"
        },
        {
          "internalType": "uint256",
          "name": "amountBDesired",
          "type": "uint256"
        },
        {
          "internalType": "uint256",
          "name": "amountAMin",
          "type": "uint256"
        },
        {
          "internalType": "uint256",
          "name": "amountBMin",
          "type": "uint256"
        },
        {
          "internalType": "address",
          "name": "to",
          "type": "address"
        },
        {
          "internalType": "uint256",
          "name": "deadline",
          "type": "uint256"
        }
      ],
      "name": "addLiquidity",
      "outputs": [
        {
          "internalType": "uint256",
          "name": "amountA",
          "type": "uint256"
        },
        {
          "internalType": "uint256",
          "name": "amountB",
          "type": "uint256"
        },
        {
          "internalType": "uint256",
          "name": "liquidity",
          "type": "uint256"
        }
      ],
      "stateMutability": "nonpayable",
      "type": "function"
    },
    {
      "inputs": [
        {
          "internalType": "address",
          "name": "token",
          "type": "address"
        },
        {
          "internalType": "uint256",
          "name": "amountTokenDesired",
          "type": "uint256"
        },
        {
          "internalType": "uint256",
          "name": "amountTokenMin",
          "type": "uint256"
        },
        {
          "internalType": "uint256",
          "name": "amountTRXMin",
          "type": "uint256"
        },
        {
          "internalType": "address",
          "name": "to",
          "type": "address"
        },
        {
          "internalType": "uint256",
          "name": "deadline",
          "type": "uint256"
        }
      ],
      "name": "addLiquidityTRX",
      "outputs": [
        {
          "internalType": "uint256",
          "name": "amountToken",
          "type": "uint256"
        },
        {
          "internalType": "uint256",
          "name": "amountTRX",
          "type": "uint256"
        },
        {
          "internalType": "uint256",
          "name": "liquidity",
          "type": "uint256"
        }
      ],
      "stateMutability": "payable",
      "type": "function"
    },
    {
      "inputs": [
        {
          "internalType": "address",
          "name": "tokenA",
          "type": "address"
        },
        {
          "internalType": "address",
          "name": "tokenB",
          "type": "address"
        },
        {
          "internalType": "uint256",
          "name": "liquidity",
          "type": "uint256"
        },
        {
          "internalType": "uint256",
          "name": "amountAMin",
          "type": "uint256"
        },
        {
          "internalType": "uint256",
          "name": "amountBMin",
          "type": "uint256"
        },
        {
          "internalType": "address",
          "name": "to",
          "type": "address"
        },
        {
          "internalType": "uint256",
          "name": "deadline",
          "type": "uint256"
        }
      ],
      "name": "removeLiquidity",
      "outputs": [
        {
          "internalType": "uint256",
          "name": "amountA",
          "type": "uint256"
        },
        {
          "internalType": "uint256",
          "name": "amountB",
          "type": "uint256"
        }
      ],
      "stateMutability": "nonpayable",
      "type": "function"
    },
    {
      "inputs": [
        {
          "internalType": "address",
          "name": "token",
          "type": "address"
        },
        {
          "internalType": "uint256",
          "name": "liquidity",
          "type": "uint256"
        },
        {
          "internalType": "uint256",
          "name": "amountTokenMin",
          "type": "uint256"
        },
        {
          "internalType": "uint256",
          "name": "amountTRXMin",
          "type": "uint256"
        },
        {
          "internalType": "address",
          "name": "to",
          "type": "address"
        },
        {
          "internalType": "uint256",
          "name": "deadline",
          "type": "uint256"
        }
      ],
      "name": "removeLiquidityTRX",
      "outputs": [
        {
          "internalType": "uint256",
          "name": "amountToken",
          "type": "uint256"
        },
        {
          "internalType": "uint256",
          "name": "amountTRX",
          "type": "uint256"
        }
      ],
      "stateMutability": "nonpayable",
      "type": "function"
    },
    {
      "inputs": [
        {
          "internalType": "address",
          "name": "tokenA",
          "type": "address"
        },
        {
          "internalType": "address",
          "name": "tokenB",
          "type": "address"
        },
        {
          "internalType": "uint256",
          "name": "liquidity",
          "type": "uint256"
        },
        {
          "internalType": "uint256",
          "name": "amountAMin",
          "type": "uint256"
        },
        {
          "internalType": "uint256",
          "name": "amountBMin",
          "type": "uint256"
        },
        {
          "internalType": "address",
          "name": "to",
          "type": "address"
        },
        {
          "internalType": "uint256",
          "name": "deadline",
          "type": "uint256"
        },
        {
          "internalType": "bool",
          "name": "approveMax",
          "type": "bool"
        },
        {
          "internalType": "uint8",
          "name": "v",
          "type": "uint8"
        },
        {
          "internalType": "bytes32",
          "name": "r",
          "type": "bytes32"
        },
        {
          "internalType": "bytes32",
          "name": "s",
          "type": "bytes32"
        }
      ],
      "name": "removeLiquidityWithPermit",
      "outputs": [
        {
          "internalType": "uint256",
          "name": "amountA",
          "type": "uint256"
        },
        {
          "internalType": "uint256",
          "name": "amountB",
          "type": "uint256"
        }
      ],
      "stateMutability": "nonpayable",
      "type": "function"
    },
    {
      "inputs": [
        {
          "internalType": "address",
          "name": "token",
          "type": "address"
        },
        {
          "internalType": "uint256",
          "name": "liquidity",
          "type": "uint256"
        },
        {
          "internalType": "uint256",
          "name": "amountTokenMin",
          "type": "uint256"
        },
        {
          "internalType": "uint256",
          "name": "amountTRXMin",
          "type": "uint256"
        },
        {
          "internalType": "address",
          "name": "to",
          "type": "address"
        },
        {
          "internalType": "uint256",
          "name": "deadline",
          "type": "uint256"
        },
        {
          "internalType": "bool",
          "name": "approveMax",
          "type": "bool"
        },
        {
          "internalType": "uint8",
          "name": "v",
          "type": "uint8"
        },
        {
          "internalType": "bytes32",
          "name": "r",
          "type": "bytes32"
        },
        {
          "internalType": "bytes32",
          "name": "s",
          "type": "bytes32"
        }
      ],
      "name": "removeLiquidityTRXWithPermit",
      "outputs": [
        {
          "internalType": "uint256",
          "name": "amountToken",
          "type": "uint256"
        },
        {
          "internalType": "uint256",
          "name": "amountTRX",
          "type": "uint256"
        }
      ],
      "stateMutability": "nonpayable",
      "type": "function"
    },
    {
      "inputs": [
        {
          "internalType": "address",
          "name": "token",
          "type": "address"
        },
        {
          "internalType": "uint256",
          "name": "liquidity",
          "type": "uint256"
        },
        {
          "internalType": "uint256",
          "name": "amountTokenMin",
          "type": "uint256"
        },
        {
          "internalType": "uint256",
          "name": "amountTRXMin",
          "type": "uint256"
        },
        {
          "internalType": "address",
          "name": "to",
          "type": "address"
        },
        {
          "internalType": "uint256",
          "name": "deadline",
          "type": "uint256"
        }
      ],
      "name": "removeLiquidityTRXSupportingFeeOnTransferTokens",
      "outputs": [
        {
          "internalType": "uint256",
          "name": "amountTRX",
          "type": "uint256"
        }
      ],
      "stateMutability": "nonpayable",
      "type": "function"
    },
    {
      "inputs": [
        {
          "internalType": "address",
          "name": "token",
          "type": "address"
        },
        {
          "internalType": "uint256",
          "name": "liquidity",
          "type": "uint256"
        },
        {
          "internalType": "uint256",
          "name": "amountTokenMin",
          "type": "uint256"
        },
        {
          "internalType": "uint256",
          "name": "amountTRXMin",
          "type": "uint256"
        },
        {
          "internalType": "address",
          "name": "to",
          "type": "address"
        },
        {
          "internalType": "uint256",
          "name": "deadline",
          "type": "uint256"
        },
        {
          "internalType": "bool",
          "name": "approveMax",
          "type": "bool"
        },
        {
          "internalType": "uint8",
          "name": "v",
          "type": "uint8"
        },
        {
          "internalType": "bytes32",
          "name": "r",
          "type": "bytes32"
        },
        {
          "internalType": "bytes32",
          "name": "s",
          "type": "bytes32"
        }
      ],
      "name": "removeLiquidityTRXWithPermitSupportingFeeOnTransferTokens",
      "outputs": [
        {
          "internalType": "uint256",
          "name": "amountTRX",
          "type": "uint256"
        }
      ],
      "stateMutability": "nonpayable",
      "type": "function"
    },
    {
      "inputs": [
        {
          "internalType": "uint256",
          "name": "amountIn",
          "type": "uint256"
        },
        {
          "internalType": "uint256",
          "name": "amountOutMin",
          "type": "uint256"
        },
        {
          "internalType": "address[]",
          "name": "path",
          "type": "address[]"
        },
        {
          "internalType": "address",
          "name": "to",
          "type": "address"
        },
        {
          "internalType": "uint256",
          "name": "deadline",
          "type": "uint256"
        }
      ],
      "name": "swapExactTokensForTokens",
      "outputs": [
        {
          "internalType": "uint256[]",
          "name": "amounts",
          "type": "uint256[]"
        }
      ],
      "stateMutability": "nonpayable",
      "type": "function"
    },
    {
      "inputs": [
        {
          "internalType": "uint256",
          "name": "amountOut",
          "type": "uint256"
        },
        {
          "internalType": "uint256",
          "name": "amountInMax",
          "type": "uint256"
        },
        {
          "internalType": "address[]",
          "name": "path",
          "type": "address[]"
        },
        {
          "internalType": "address",
          "name": "to",
          "type": "address"
        },
        {
          "internalType": "uint256",
          "name": "deadline",
          "type": "uint256"
        }
      ],
      "name": "swapTokensForExactTokens",
      "outputs": [
        {
          "internalType": "uint256[]",
          "name": "amounts",
          "type": "uint256[]"
        }
      ],
      "stateMutability": "nonpayable",
      "type": "function"
    },
    {
      "inputs": [
        {
          "internalType": "uint256",
          "name": "amountOutMin",
          "type": "uint256"
        },
        {
          "internalType": "address[]",
          "name": "path",
          "type": "address[]"
        },
        {
          "internalType": "address",
          "name": "to",
          "type": "address"
        },
        {
          "internalType": "uint256",
          "name": "deadline",
          "type": "uint256"
        }
      ],
      "name": "swapExactTRXForTokens",
      "outputs": [
        {
          "internalType": "uint256[]",
          "name": "amounts",
          "type": "uint256[]"
        }
      ],
      "stateMutability": "payable",
      "type": "function"
    },
    {
      "inputs": [
        {
          "internalType": "uint256",
          "name": "amountOut",
          "type": "uint256"
        },
        {
          "internalType": "uint256",
          "name": "amountInMax",
          "type": "uint256"
        },
        {
          "internalType": "address[]",
          "name": "path",
          "type": "address[]"
        },
        {
          "internalType": "address",
          "name": "to",
          "type": "address"
        },
        {
          "internalType": "uint256",
          "name": "deadline",
          "type": "uint256"
        }
      ],
      "name": "swapTokensForExactTRX",
      "outputs": [
        {
          "internalType": "uint256[]",
          "name": "amounts",
          "type": "uint256[]"
        }
      ],
      "stateMutability": "nonpayable",
      "type": "function"
    },
    {
      "inputs": [
        {
          "internalType": "uint256",
          "name": "amountIn",
          "type": "uint256"
        },
        {
          "internalType": "uint256",
          "name": "amountOutMin",
          "type": "uint256"
        },
        {
          "internalType": "address[]",
          "name": "path",
          "type": "address[]"
        },
        {
          "internalType": "address",
          "name": "to",
          "type": "address"
        },
        {
          "internalType": "uint256",
          "name": "deadline",
          "type": "uint256"
        }
      ],
      "name": "swapExactTokensForTRX",
      "outputs": [
        {
          "internalType": "uint256[]",
          "name": "amounts",
          "type": "uint256[]"
        }
      ],
      "stateMutability": "nonpayable",
      "type": "function"
    },
    {
      "inputs": [
        {
          "internalType": "uint256",
          "name": "amountOut",
          "type": "uint256"
        },
        {
          "internalType": "address[]",
          "name": "path",
          "type": "address[]"
        },
        {
          "internalType": "address",
          "name": "to",
          "type": "address"
        },
        {
          "internalType": "uint256",
          "name": "deadline",
          "type": "uint256"
        }
      ],
      "name": "swapTRXForExactTokens",
      "outputs": [
        {
          "internalType": "uint256[]",
          "name": "amounts",
          "type": "uint256[]"
        }
      ],
      "stateMutability": "payable",
      "type": "function"
    },
    {
      "inputs": [
        {
          "internalType": "uint256",
          "name": "amountIn",
          "type": "uint256"
        },
        {
          "internalType": "uint256",
          "name": "amountOutMin",
          "type": "uint256"
        },
        {
          "internalType": "address[]",
          "name": "path",
          "type": "address[]"
        },
        {
          "internalType": "address",
          "name": "to",
          "type": "address"
        },
        {
          "internalType": "uint256",
          "name": "deadline",
          "type": "uint256"
        }
      ],
      "name": "swapExactTokensForTokensSupportingFeeOnTransferTokens",
      "outputs": [],
      "stateMutability": "nonpayable",
      "type": "function"
    },
    {
      "inputs": [
        {
          "internalType": "uint256",
          "name": "amountOutMin",
          "type": "uint256"
        },
        {
          "internalType": "address[]",
          "name": "path",
          "type": "address[]"
        },
        {
          "internalType": "address",
          "name": "to",
          "type": "address"
        },
        {
          "internalType": "uint256",
          "name": "deadline",
          "type": "uint256"
        }
      ],
      "name": "swapExactTRXForTokensSupportingFeeOnTransferTokens",
      "outputs": [],
      "stateMutability": "payable",
      "type": "function"
    },
    {
      "inputs": [
        {
          "internalType": "uint256",
          "name": "amountIn",
          "type": "uint256"
        },
        {
          "internalType": "uint256",
          "name": "amountOutMin",
          "type": "uint256"
        },
        {
          "internalType": "address[]",
          "name": "path",
          "type": "address[]"
        },
        {
          "internalType": "address",
          "name": "to",
          "type": "address"
        },
        {
          "internalType": "uint256",
          "name": "deadline",
          "type": "uint256"
        }
      ],
      "name": "swapExactTokensForTRXSupportingFeeOnTransferTokens",
      "outputs": [],
      "stateMutability": "nonpayable",
      "type": "function"
    },
    {
      "inputs": [
        {
          "internalType": "uint256",
          "name": "amountA",
          "type": "uint256"
        },
        {
          "internalType": "uint256",
          "name": "reserveA",
          "type": "uint256"
        },
        {
          "internalType": "uint256",
          "name": "reserveB",
          "type": "uint256"
        }
      ],
      "name": "quote",
      "outputs": [
        {
          "internalType": "uint256",
          "name": "amountB",
          "type": "uint256"
        }
      ],
      "stateMutability": "pure",
      "type": "function"
    },
    {
      "inputs": [
        {
          "internalType": "uint256",
          "name": "amountIn",
          "type": "uint256"
        },
        {
          "internalType": "uint256",
          "name": "reserveIn",
          "type": "uint256"
        },
        {
          "internalType": "uint256",
          "name": "reserveOut",
          "type": "uint256"
        }
      ],
      "name": "getAmountOut",
      "outputs": [
        {
          "internalType": "uint256",
          "name": "amountOut",
          "type": "uint256"
        }
      ],
      "stateMutability": "pure",
      "type": "function"
    },
    {
      "inputs": [
        {
          "internalType": "uint256",
          "name": "amountOut",
          "type": "uint256"
        },
        {
          "internalType": "uint256",
          "name": "reserveIn",
          "type": "uint256"
        },
        {
          "internalType": "uint256",
          "name": "reserveOut",
          "type": "uint256"
        }
      ],
      "name": "getAmountIn",
      "outputs": [
        {
          "internalType": "uint256",
          "name": "amountIn",
          "type": "uint256"
        }
      ],
      "stateMutability": "pure",
      "type": "function"
    },
    {
      "inputs": [
        {
          "internalType": "uint256",
          "name": "amountIn",
          "type": "uint256"
        },
        {
          "internalType": "address[]",
          "name": "path",
          "type": "address[]"
        }
      ],
      "name": "getAmountsOut",
      "outputs": [
        {
          "internalType": "uint256[]",
          "name": "amounts",
          "type": "uint256[]"
        }
      ],
      "stateMutability": "view",
      "type": "function"
    },
    {
      "inputs": [
        {
          "internalType": "uint256",
          "name": "amountOut",
          "type": "uint256"
        },
        {
          "internalType": "address[]",
          "name": "path",
          "type": "address[]"
        }
      ],
      "name": "getAmountsIn",
      "outputs": [
        {
          "internalType": "uint256[]",
          "name": "amounts",
          "type": "uint256[]"
        }
      ],
      "stateMutability": "view",
      "type": "function"
    }
  ],
  "bytecode": "0x60806040523480156200001157600080fd5b50d380156200001f57600080fd5b50d280156200002d57600080fd5b5060405162006c1238038062006c12833981810160405260408110156200005357600080fd5b810190808051906020019092919080519060200190929190505050816000806101000a81548173ffffffffffffffffffffffffffffffffffffffff021916908373ffffffffffffffffffffffffffffffffffffffff16021790555080600160006101000a81548173ffffffffffffffffffffffffffffffffffffffff021916908373ffffffffffffffffffffffffffffffffffffffff1602179055505050616b1180620001016000396000f3fe60806040526004361061014f5760003560e01c806382bcc5da116100b6578063baa2abde1161006f578063baa2abde14611296578063c45a015514611384578063d06ca61f146113f5578063e07094f314611533578063e8e33700146115a4578063f037219f146116a4576101ad565b806382bcc5da14610dc257806385f8c25914610ef55780638803dbee14610f7257806389f6bd5d146110a55780639bfe5e0514611152578063ad615dec14611219576101ad565b806329dc09961161010857806329dc0996146107dd57806338ed1739146108d25780633ff82e3214610a055780635c11d79514610b385780636d1eb33414610c165780636f65345214610ce4576101ad565b8063054d50d4146102065780630cfedc68146102835780631cf4401e1461037f5780631f00ca74146104815780632195995c146105bf578063246ea413146106db576101ad565b366101ad57600160009054906101000a900473ffffffffffffffffffffffffffffffffffffffff1673ffffffffffffffffffffffffffffffffffffffff163373ffffffffffffffffffffffffffffffffffffffff16146101ab57fe5b005b600160009054906101000a900473ffffffffffffffffffffffffffffffffffffffff1673ffffffffffffffffffffffffffffffffffffffff163373ffffffffffffffffffffffffffffffffffffffff161461020457fe5b005b34801561021257600080fd5b50d3801561021f57600080fd5b50d2801561022c57600080fd5b5061026d6004803603606081101561024357600080fd5b81019080803590602001909291908035906020019092919080359060200190929190505050611752565b6040518082815260200191505060405180910390f35b34801561028f57600080fd5b50d3801561029c57600080fd5b50d280156102a957600080fd5b5061036260048036036101408110156102c157600080fd5b81019080803573ffffffffffffffffffffffffffffffffffffffff169060200190929190803590602001909291908035906020019092919080359060200190929190803573ffffffffffffffffffffffffffffffffffffffff16906020019092919080359060200190929190803515159060200190929190803560ff1690602001909291908035906020019092919080359060200190929190505050611768565b604051808381526020018281526020019250505060405180910390f35b61042a6004803603608081101561039557600080fd5b8101908080359060200190929190803590602001906401000000008111156103bc57600080fd5b8201836020820111156103ce57600080fd5b803590602001918460208302840111640100000000831117156103f057600080fd5b9091929391929390803573ffffffffffffffffffffffffffffffffffffffff1690602001909291908035906020019092919050505061190e565b6040518080602001828103825283818151815260200191508051906020019060200280838360005b8381101561046d578082015181840152602081019050610452565b505050509050019250505060405180910390f35b34801561048d57600080fd5b50d3801561049a57600080fd5b50d280156104a757600080fd5b50610568600480360360408110156104be57600080fd5b8101908080359060200190929190803590602001906401000000008111156104e557600080fd5b8201836020820111156104f757600080fd5b8035906020019184602083028401116401000000008311171561051957600080fd5b919080806020026020016040519081016040528093929190818152602001838360200280828437600081840152601f19601f820116905080830192505050505050509192919290505050611dba565b6040518080602001828103825283818151815260200191508051906020019060200280838360005b838110156105ab578082015181840152602081019050610590565b505050509050019250505060405180910390f35b3480156105cb57600080fd5b50d380156105d857600080fd5b50d280156105e557600080fd5b506106be60048036036101608110156105fd57600080fd5b81019080803573ffffffffffffffffffffffffffffffffffffffff169060200190929190803573ffffffffffffffffffffffffffffffffffffffff169060200190929190803590602001909291908035906020019092919080359060200190929190803573ffffffffffffffffffffffffffffffffffffffff16906020019092919080359060200190929190803515159060200190929190803560ff1690602001909291908035906020019092919080359060200190929190505050611df0565b604051808381526020018281526020019250505060405180910390f35b610786600480360360808110156106f157600080fd5b81019080803590602001909291908035906020019064010000000081111561071857600080fd5b82018360208201111561072a57600080fd5b8035906020019184602083028401116401000000008311171561074c57600080fd5b9091929391929390803573ffffffffffffffffffffffffffffffffffffffff16906020019092919080359060200190929190505050611f76565b6040518080602001828103825283818151815260200191508051906020019060200280838360005b838110156107c95780820151818401526020810190506107ae565b505050509050019250505060405180910390f35b3480156107e957600080fd5b50d380156107f657600080fd5b50d2801561080357600080fd5b506108bc600480360361014081101561081b57600080fd5b81019080803573ffffffffffffffffffffffffffffffffffffffff169060200190929190803590602001909291908035906020019092919080359060200190929190803573ffffffffffffffffffffffffffffffffffffffff16906020019092919080359060200190929190803515159060200190929190803560ff169060200190929190803590602001909291908035906020019092919050505061245c565b6040518082815260200191505060405180910390f35b3480156108de57600080fd5b50d380156108eb57600080fd5b50d280156108f857600080fd5b506109ae600480360360a081101561090f57600080fd5b8101908080359060200190929190803590602001909291908035906020019064010000000081111561094057600080fd5b82018360208201111561095257600080fd5b8035906020019184602083028401116401000000008311171561097457600080fd5b9091929391929390803573ffffffffffffffffffffffffffffffffffffffff169060200190929190803590602001909291905050506125f9565b6040518080602001828103825283818151815260200191508051906020019060200280838360005b838110156109f15780820151818401526020810190506109d6565b505050509050019250505060405180910390f35b348015610a1157600080fd5b50d38015610a1e57600080fd5b50d28015610a2b57600080fd5b50610ae1600480360360a0811015610a4257600080fd5b81019080803590602001909291908035906020019092919080359060200190640100000000811115610a7357600080fd5b820183602082011115610a8557600080fd5b80359060200191846020830284011164010000000083111715610aa757600080fd5b9091929391929390803573ffffffffffffffffffffffffffffffffffffffff1690602001909291908035906020019092919050505061286e565b6040518080602001828103825283818151815260200191508051906020019060200280838360005b83811015610b24578082015181840152602081019050610b09565b505050509050019250505060405180910390f35b348015610b4457600080fd5b50d38015610b5157600080fd5b50d28015610b5e57600080fd5b50610c14600480360360a0811015610b7557600080fd5b81019080803590602001909291908035906020019092919080359060200190640100000000811115610ba657600080fd5b820183602082011115610bb857600080fd5b80359060200191846020830284011164010000000083111715610bda57600080fd5b9091929391929390803573ffffffffffffffffffffffffffffffffffffffff16906020019092919080359060200190929190505050612c99565b005b348015610c2257600080fd5b50d38015610c2f57600080fd5b50d28015610c3c57600080fd5b50610cc7600480360360c0811015610c5357600080fd5b81019080803573ffffffffffffffffffffffffffffffffffffffff169060200190929190803590602001909291908035906020019092919080359060200190929190803573ffffffffffffffffffffffffffffffffffffffff16906020019092919080359060200190929190505050613051565b604051808381526020018281526020019250505060405180910390f35b348015610cf057600080fd5b50d38015610cfd57600080fd5b50d28015610d0a57600080fd5b50610dc0600480360360a0811015610d2157600080fd5b81019080803590602001909291908035906020019092919080359060200190640100000000811115610d5257600080fd5b820183602082011115610d6457600080fd5b80359060200191846020830284011164010000000083111715610d8657600080fd5b9091929391929390803573ffffffffffffffffffffffffffffffffffffffff169060200190929190803590602001909291905050506131b2565b005b348015610dce57600080fd5b50d38015610ddb57600080fd5b50d28015610de857600080fd5b50610e9e600480360360a0811015610dff57600080fd5b81019080803590602001909291908035906020019092919080359060200190640100000000811115610e3057600080fd5b820183602082011115610e4257600080fd5b80359060200191846020830284011164010000000083111715610e6457600080fd5b9091929391929390803573ffffffffffffffffffffffffffffffffffffffff169060200190929190803590602001909291905050506135ef565b6040518080602001828103825283818151815260200191508051906020019060200280838360005b83811015610ee1578082015181840152602081019050610ec6565b505050509050019250505060405180910390f35b348015610f0157600080fd5b50d38015610f0e57600080fd5b50d28015610f1b57600080fd5b50610f5c60048036036060811015610f3257600080fd5b81019080803590602001909291908035906020019092919080359060200190929190505050613a17565b6040518082815260200191505060405180910390f35b348015610f7e57600080fd5b50d38015610f8b57600080fd5b50d28015610f9857600080fd5b5061104e600480360360a0811015610faf57600080fd5b81019080803590602001909291908035906020019092919080359060200190640100000000811115610fe057600080fd5b820183602082011115610ff257600080fd5b8035906020019184602083028401116401000000008311171561101457600080fd5b9091929391929390803573ffffffffffffffffffffffffffffffffffffffff16906020019092919080359060200190929190505050613a2d565b6040518080602001828103825283818151815260200191508051906020019060200280838360005b83811015611091578082015181840152602081019050611076565b505050509050019250505060405180910390f35b611150600480360360808110156110bb57600080fd5b8101908080359060200190929190803590602001906401000000008111156110e257600080fd5b8201836020820111156110f457600080fd5b8035906020019184602083028401116401000000008311171561111657600080fd5b9091929391929390803573ffffffffffffffffffffffffffffffffffffffff16906020019092919080359060200190929190505050613c9f565b005b34801561115e57600080fd5b50d3801561116b57600080fd5b50d2801561117857600080fd5b50611203600480360360c081101561118f57600080fd5b81019080803573ffffffffffffffffffffffffffffffffffffffff169060200190929190803590602001909291908035906020019092919080359060200190929190803573ffffffffffffffffffffffffffffffffffffffff16906020019092919080359060200190929190505050614280565b6040518082815260200191505060405180910390f35b34801561122557600080fd5b50d3801561123257600080fd5b50d2801561123f57600080fd5b506112806004803603606081101561125657600080fd5b81019080803590602001909291908035906020019092919080359060200190929190505050614494565b6040518082815260200191505060405180910390f35b3480156112a257600080fd5b50d380156112af57600080fd5b50d280156112bc57600080fd5b50611367600480360360e08110156112d357600080fd5b81019080803573ffffffffffffffffffffffffffffffffffffffff169060200190929190803573ffffffffffffffffffffffffffffffffffffffff169060200190929190803590602001909291908035906020019092919080359060200190929190803573ffffffffffffffffffffffffffffffffffffffff169060200190929190803590602001909291905050506144aa565b604051808381526020018281526020019250505060405180910390f35b34801561139057600080fd5b50d3801561139d57600080fd5b50d280156113aa57600080fd5b506113b361482c565b604051808273ffffffffffffffffffffffffffffffffffffffff1673ffffffffffffffffffffffffffffffffffffffff16815260200191505060405180910390f35b34801561140157600080fd5b50d3801561140e57600080fd5b50d2801561141b57600080fd5b506114dc6004803603604081101561143257600080fd5b81019080803590602001909291908035906020019064010000000081111561145957600080fd5b82018360208201111561146b57600080fd5b8035906020019184602083028401116401000000008311171561148d57600080fd5b919080806020026020016040519081016040528093929190818152602001838360200280828437600081840152601f19601f820116905080830192505050505050509192919290505050614851565b6040518080602001828103825283818151815260200191508051906020019060200280838360005b8381101561151f578082015181840152602081019050611504565b505050509050019250505060405180910390f35b34801561153f57600080fd5b50d3801561154c57600080fd5b50d2801561155957600080fd5b50611562614887565b604051808273ffffffffffffffffffffffffffffffffffffffff1673ffffffffffffffffffffffffffffffffffffffff16815260200191505060405180910390f35b3480156115b057600080fd5b50d380156115bd57600080fd5b50d280156115ca57600080fd5b5061168060048036036101008110156115e257600080fd5b81019080803573ffffffffffffffffffffffffffffffffffffffff169060200190929190803573ffffffffffffffffffffffffffffffffffffffff16906020019092919080359060200190929190803590602001909291908035906020019092919080359060200190929190803573ffffffffffffffffffffffffffffffffffffffff169060200190929190803590602001909291905050506148ad565b60405180848152602001838152602001828152602001935050505060405180910390f35b61172e600480360360c08110156116ba57600080fd5b81019080803573ffffffffffffffffffffffffffffffffffffffff169060200190929190803590602001909291908035906020019092919080359060200190929190803573ffffffffffffffffffffffffffffffffffffffff16906020019092919080359060200190929190505050614a53565b60405180848152602001838152602001828152602001935050505060405180910390f35b600061175f848484614db1565b90509392505050565b60008060006117bb6000809054906101000a900473ffffffffffffffffffffffffffffffffffffffff168e600160009054906101000a900473ffffffffffffffffffffffffffffffffffffffff16614ee1565b90506000876117ca578c6117ec565b7fffffffffffffffffffffffffffffffffffffffffffffffffffffffffffffffff5b90508173ffffffffffffffffffffffffffffffffffffffff1663d505accf3330848d8c8c8c6040518863ffffffff1660e01b8152600401808873ffffffffffffffffffffffffffffffffffffffff1673ffffffffffffffffffffffffffffffffffffffff1681526020018773ffffffffffffffffffffffffffffffffffffffff1673ffffffffffffffffffffffffffffffffffffffff1681526020018681526020018581526020018460ff1660ff168152602001838152602001828152602001975050505050505050600060405180830381600087803b1580156118cf57600080fd5b505af11580156118e3573d6000803e3d6000fd5b505050506118f58e8e8e8e8e8e613051565b809450819550505050509a509a98505050505050505050565b60608142811015611987576040517f08c379a00000000000000000000000000000000000000000000000000000000081526004018080602001828103825260188152602001807f556e69737761705632526f757465723a2045585049524544000000000000000081525060200191505060405180910390fd5b600160009054906101000a900473ffffffffffffffffffffffffffffffffffffffff1673ffffffffffffffffffffffffffffffffffffffff16868660008181106119cd57fe5b9050602002013573ffffffffffffffffffffffffffffffffffffffff1673ffffffffffffffffffffffffffffffffffffffff1614611a73576040517f08c379a000000000000000000000000000000000000000000000000000000000815260040180806020018281038252601d8152602001807f556e69737761705632526f757465723a20494e56414c49445f5041544800000081525060200191505060405180910390fd5b611ae06000809054906101000a900473ffffffffffffffffffffffffffffffffffffffff1634888880806020026020016040519081016040528093929190818152602001838360200280828437600081840152601f19601f82011690508083019250505050505050614fd8565b91508682600184510381518110611af357fe5b60200260200101511015611b52576040517f08c379a000000000000000000000000000000000000000000000000000000000815260040180806020018281038252602b815260200180616a59602b913960400191505060405180910390fd5b600160009054906101000a900473ffffffffffffffffffffffffffffffffffffffff1673ffffffffffffffffffffffffffffffffffffffff1663d0e30db083600081518110611b9d57fe5b60200260200101516040518263ffffffff1660e01b81526004016000604051808303818588803b158015611bd057600080fd5b505af1158015611be4573d6000803e3d6000fd5b5050505050600160009054906101000a900473ffffffffffffffffffffffffffffffffffffffff1673ffffffffffffffffffffffffffffffffffffffff1663a9059cbb611ca56000809054906101000a900473ffffffffffffffffffffffffffffffffffffffff1689896000818110611c5957fe5b9050602002013573ffffffffffffffffffffffffffffffffffffffff168a8a6001818110611c8357fe5b9050602002013573ffffffffffffffffffffffffffffffffffffffff16614ee1565b84600081518110611cb257fe5b60200260200101516040518363ffffffff1660e01b8152600401808373ffffffffffffffffffffffffffffffffffffffff1673ffffffffffffffffffffffffffffffffffffffff16815260200182815260200192505050602060405180830381600087803b158015611d2357600080fd5b505af1158015611d37573d6000803e3d6000fd5b505050506040513d6020811015611d4d57600080fd5b8101908080519060200190929190505050611d6457fe5b611db082878780806020026020016040519081016040528093929190818152602001838360200280828437600081840152601f19601f8201169050808301925050505050505086615139565b5095945050505050565b6060611de86000809054906101000a900473ffffffffffffffffffffffffffffffffffffffff1684846153cf565b905092915050565b6000806000611e216000809054906101000a900473ffffffffffffffffffffffffffffffffffffffff168f8f614ee1565b9050600087611e30578c611e52565b7fffffffffffffffffffffffffffffffffffffffffffffffffffffffffffffffff5b90508173ffffffffffffffffffffffffffffffffffffffff1663d505accf3330848d8c8c8c6040518863ffffffff1660e01b8152600401808873ffffffffffffffffffffffffffffffffffffffff1673ffffffffffffffffffffffffffffffffffffffff1681526020018773ffffffffffffffffffffffffffffffffffffffff1673ffffffffffffffffffffffffffffffffffffffff1681526020018681526020018581526020018460ff1660ff168152602001838152602001828152602001975050505050505050600060405180830381600087803b158015611f3557600080fd5b505af1158015611f49573d6000803e3d6000fd5b50505050611f5c8f8f8f8f8f8f8f6144aa565b809450819550505050509b509b9950505050505050505050565b60608142811015611fef576040517f08c379a00000000000000000000000000000000000000000000000000000000081526004018080602001828103825260188152602001807f556e69737761705632526f757465723a2045585049524544000000000000000081525060200191505060405180910390fd5b600160009054906101000a900473ffffffffffffffffffffffffffffffffffffffff1673ffffffffffffffffffffffffffffffffffffffff168686600081811061203557fe5b9050602002013573ffffffffffffffffffffffffffffffffffffffff1673ffffffffffffffffffffffffffffffffffffffff16146120db576040517f08c379a000000000000000000000000000000000000000000000000000000000815260040180806020018281038252601d8152602001807f556e69737761705632526f757465723a20494e56414c49445f5041544800000081525060200191505060405180910390fd5b6121486000809054906101000a900473ffffffffffffffffffffffffffffffffffffffff1688888880806020026020016040519081016040528093929190818152602001838360200280828437600081840152601f19601f820116905080830192505050505050506153cf565b9150348260008151811061215857fe5b602002602001015111156121b7576040517f08c379a00000000000000000000000000000000000000000000000000000000081526004018080602001828103825260278152602001806169d86027913960400191505060405180910390fd5b600160009054906101000a900473ffffffffffffffffffffffffffffffffffffffff1673ffffffffffffffffffffffffffffffffffffffff1663d0e30db08360008151811061220257fe5b60200260200101516040518263ffffffff1660e01b81526004016000604051808303818588803b15801561223557600080fd5b505af1158015612249573d6000803e3d6000fd5b5050505050600160009054906101000a900473ffffffffffffffffffffffffffffffffffffffff1673ffffffffffffffffffffffffffffffffffffffff1663a9059cbb61230a6000809054906101000a900473ffffffffffffffffffffffffffffffffffffffff16898960008181106122be57fe5b9050602002013573ffffffffffffffffffffffffffffffffffffffff168a8a60018181106122e857fe5b9050602002013573ffffffffffffffffffffffffffffffffffffffff16614ee1565b8460008151811061231757fe5b60200260200101516040518363ffffffff1660e01b8152600401808373ffffffffffffffffffffffffffffffffffffffff1673ffffffffffffffffffffffffffffffffffffffff16815260200182815260200192505050602060405180830381600087803b15801561238857600080fd5b505af115801561239c573d6000803e3d6000fd5b505050506040513d60208110156123b257600080fd5b81019080805190602001909291905050506123c957fe5b61241582878780806020026020016040519081016040528093929190818152602001838360200280828437600081840152601f19601f8201169050808301925050505050505086615139565b8160008151811061242257fe5b602002602001015134111561245257612451338360008151811061244257fe5b60200260200101513403615538565b5b5095945050505050565b6000806124ad6000809054906101000a900473ffffffffffffffffffffffffffffffffffffffff168d600160009054906101000a900473ffffffffffffffffffffffffffffffffffffffff16614ee1565b90506000866124bc578b6124de565b7fffffffffffffffffffffffffffffffffffffffffffffffffffffffffffffffff5b90508173ffffffffffffffffffffffffffffffffffffffff1663d505accf3330848c8b8b8b6040518863ffffffff1660e01b8152600401808873ffffffffffffffffffffffffffffffffffffffff1673ffffffffffffffffffffffffffffffffffffffff1681526020018773ffffffffffffffffffffffffffffffffffffffff1673ffffffffffffffffffffffffffffffffffffffff1681526020018681526020018581526020018460ff1660ff168152602001838152602001828152602001975050505050505050600060405180830381600087803b1580156125c157600080fd5b505af11580156125d5573d6000803e3d6000fd5b505050506125e78d8d8d8d8d8d614280565b925050509a9950505050505050505050565b60608142811015612672576040517f08c379a00000000000000000000000000000000000000000000000000000000081526004018080602001828103825260188152602001807f556e69737761705632526f757465723a2045585049524544000000000000000081525060200191505060405180910390fd5b6126df6000809054906101000a900473ffffffffffffffffffffffffffffffffffffffff1689888880806020026020016040519081016040528093929190818152602001838360200280828437600081840152601f19601f82011690508083019250505050505050614fd8565b915086826001845103815181106126f257fe5b60200260200101511015612751576040517f08c379a000000000000000000000000000000000000000000000000000000000815260040180806020018281038252602b815260200180616a59602b913960400191505060405180910390fd5b6128178686600081811061276157fe5b9050602002013573ffffffffffffffffffffffffffffffffffffffff16336127fd6000809054906101000a900473ffffffffffffffffffffffffffffffffffffffff168a8a60008181106127b157fe5b9050602002013573ffffffffffffffffffffffffffffffffffffffff168b8b60018181106127db57fe5b9050602002013573ffffffffffffffffffffffffffffffffffffffff16614ee1565b8560008151811061280a57fe5b6020026020010151615680565b61286382878780806020026020016040519081016040528093929190818152602001838360200280828437600081840152601f19601f8201169050808301925050505050505086615139565b509695505050505050565b606081428110156128e7576040517f08c379a00000000000000000000000000000000000000000000000000000000081526004018080602001828103825260188152602001807f556e69737761705632526f757465723a2045585049524544000000000000000081525060200191505060405180910390fd5b600160009054906101000a900473ffffffffffffffffffffffffffffffffffffffff1673ffffffffffffffffffffffffffffffffffffffff1686866001898990500381811061293257fe5b9050602002013573ffffffffffffffffffffffffffffffffffffffff1673ffffffffffffffffffffffffffffffffffffffff16146129d8576040517f08c379a000000000000000000000000000000000000000000000000000000000815260040180806020018281038252601d8152602001807f556e69737761705632526f757465723a20494e56414c49445f5041544800000081525060200191505060405180910390fd5b612a456000809054906101000a900473ffffffffffffffffffffffffffffffffffffffff1689888880806020026020016040519081016040528093929190818152602001838360200280828437600081840152601f19601f82011690508083019250505050505050614fd8565b91508682600184510381518110612a5857fe5b60200260200101511015612ab7576040517f08c379a000000000000000000000000000000000000000000000000000000000815260040180806020018281038252602b815260200180616a59602b913960400191505060405180910390fd5b612b7d86866000818110612ac757fe5b9050602002013573ffffffffffffffffffffffffffffffffffffffff1633612b636000809054906101000a900473ffffffffffffffffffffffffffffffffffffffff168a8a6000818110612b1757fe5b9050602002013573ffffffffffffffffffffffffffffffffffffffff168b8b6001818110612b4157fe5b9050602002013573ffffffffffffffffffffffffffffffffffffffff16614ee1565b85600081518110612b7057fe5b6020026020010151615680565b612bc982878780806020026020016040519081016040528093929190818152602001838360200280828437600081840152601f19601f8201169050808301925050505050505030615139565b600160009054906101000a900473ffffffffffffffffffffffffffffffffffffffff1673ffffffffffffffffffffffffffffffffffffffff16632e1a7d4d83600185510381518110612c1757fe5b60200260200101516040518263ffffffff1660e01b815260040180828152602001915050600060405180830381600087803b158015612c5557600080fd5b505af1158015612c69573d6000803e3d6000fd5b50505050612c8e8483600185510381518110612c8157fe5b6020026020010151615538565b509695505050505050565b8042811015612d10576040517f08c379a00000000000000000000000000000000000000000000000000000000081526004018080602001828103825260188152602001807f556e69737761705632526f757465723a2045585049524544000000000000000081525060200191505060405180910390fd5b612dc285856000818110612d2057fe5b9050602002013573ffffffffffffffffffffffffffffffffffffffff1633612dbc6000809054906101000a900473ffffffffffffffffffffffffffffffffffffffff1689896000818110612d7057fe5b9050602002013573ffffffffffffffffffffffffffffffffffffffff168a8a6001818110612d9a57fe5b9050602002013573ffffffffffffffffffffffffffffffffffffffff16614ee1565b8a615680565b6000858560018888905003818110612dd657fe5b9050602002013573ffffffffffffffffffffffffffffffffffffffff1673ffffffffffffffffffffffffffffffffffffffff166370a08231856040518263ffffffff1660e01b8152600401808273ffffffffffffffffffffffffffffffffffffffff1673ffffffffffffffffffffffffffffffffffffffff16815260200191505060206040518083038186803b158015612e6f57600080fd5b505afa158015612e83573d6000803e3d6000fd5b505050506040513d6020811015612e9957600080fd5b81019080805190602001909291905050509050612ef7868680806020026020016040519081016040528093929190818152602001838360200280828437600081840152601f19601f8201169050808301925050505050505085615891565b86612ff082888860018b8b905003818110612f0e57fe5b9050602002013573ffffffffffffffffffffffffffffffffffffffff1673ffffffffffffffffffffffffffffffffffffffff166370a08231886040518263ffffffff1660e01b8152600401808273ffffffffffffffffffffffffffffffffffffffff1673ffffffffffffffffffffffffffffffffffffffff16815260200191505060206040518083038186803b158015612fa757600080fd5b505afa158015612fbb573d6000803e3d6000fd5b505050506040513d6020811015612fd157600080fd5b8101908080519060200190929190505050615cf390919063ffffffff16565b1015613047576040517f08c379a000000000000000000000000000000000000000000000000000000000815260040180806020018281038252602b815260200180616a59602b913960400191505060405180910390fd5b5050505050505050565b60008082428110156130cb576040517f08c379a00000000000000000000000000000000000000000000000000000000081526004018080602001828103825260188152602001807f556e69737761705632526f757465723a2045585049524544000000000000000081525060200191505060405180910390fd5b6130fc89600160009054906101000a900473ffffffffffffffffffffffffffffffffffffffff168a8a8a308a6144aa565b809350819450505061310f898685615d76565b600160009054906101000a900473ffffffffffffffffffffffffffffffffffffffff1673ffffffffffffffffffffffffffffffffffffffff16632e1a7d4d836040518263ffffffff1660e01b815260040180828152602001915050600060405180830381600087803b15801561318457600080fd5b505af1158015613198573d6000803e3d6000fd5b505050506131a68583615538565b50965096945050505050565b8042811015613229576040517f08c379a00000000000000000000000000000000000000000000000000000000081526004018080602001828103825260188152602001807f556e69737761705632526f757465723a2045585049524544000000000000000081525060200191505060405180910390fd5b600160009054906101000a900473ffffffffffffffffffffffffffffffffffffffff1673ffffffffffffffffffffffffffffffffffffffff1685856001888890500381811061327457fe5b9050602002013573ffffffffffffffffffffffffffffffffffffffff1673ffffffffffffffffffffffffffffffffffffffff161461331a576040517f08c379a000000000000000000000000000000000000000000000000000000000815260040180806020018281038252601d8152602001807f556e69737761705632526f757465723a20494e56414c49445f5041544800000081525060200191505060405180910390fd5b6133cc8585600081811061332a57fe5b9050602002013573ffffffffffffffffffffffffffffffffffffffff16336133c66000809054906101000a900473ffffffffffffffffffffffffffffffffffffffff168989600081811061337a57fe5b9050602002013573ffffffffffffffffffffffffffffffffffffffff168a8a60018181106133a457fe5b9050602002013573ffffffffffffffffffffffffffffffffffffffff16614ee1565b8a615680565b613417858580806020026020016040519081016040528093929190818152602001838360200280828437600081840152601f19601f8201169050808301925050505050505030615891565b6000600160009054906101000a900473ffffffffffffffffffffffffffffffffffffffff1673ffffffffffffffffffffffffffffffffffffffff166370a08231306040518263ffffffff1660e01b8152600401808273ffffffffffffffffffffffffffffffffffffffff1673ffffffffffffffffffffffffffffffffffffffff16815260200191505060206040518083038186803b1580156134b857600080fd5b505afa1580156134cc573d6000803e3d6000fd5b505050506040513d60208110156134e257600080fd5b810190808051906020019092919050505090508681101561354e576040517f08c379a000000000000000000000000000000000000000000000000000000000815260040180806020018281038252602b815260200180616a59602b913960400191505060405180910390fd5b600160009054906101000a900473ffffffffffffffffffffffffffffffffffffffff1673ffffffffffffffffffffffffffffffffffffffff16632e1a7d4d826040518263ffffffff1660e01b815260040180828152602001915050600060405180830381600087803b1580156135c357600080fd5b505af11580156135d7573d6000803e3d6000fd5b505050506135e58482615538565b5050505050505050565b60608142811015613668576040517f08c379a00000000000000000000000000000000000000000000000000000000081526004018080602001828103825260188152602001807f556e69737761705632526f757465723a2045585049524544000000000000000081525060200191505060405180910390fd5b600160009054906101000a900473ffffffffffffffffffffffffffffffffffffffff1673ffffffffffffffffffffffffffffffffffffffff168686600189899050038181106136b357fe5b9050602002013573ffffffffffffffffffffffffffffffffffffffff1673ffffffffffffffffffffffffffffffffffffffff1614613759576040517f08c379a000000000000000000000000000000000000000000000000000000000815260040180806020018281038252601d8152602001807f556e69737761705632526f757465723a20494e56414c49445f5041544800000081525060200191505060405180910390fd5b6137c66000809054906101000a900473ffffffffffffffffffffffffffffffffffffffff1689888880806020026020016040519081016040528093929190818152602001838360200280828437600081840152601f19601f820116905080830192505050505050506153cf565b915086826000815181106137d657fe5b60200260200101511115613835576040517f08c379a00000000000000000000000000000000000000000000000000000000081526004018080602001828103825260278152602001806169d86027913960400191505060405180910390fd5b6138fb8686600081811061384557fe5b9050602002013573ffffffffffffffffffffffffffffffffffffffff16336138e16000809054906101000a900473ffffffffffffffffffffffffffffffffffffffff168a8a600081811061389557fe5b9050602002013573ffffffffffffffffffffffffffffffffffffffff168b8b60018181106138bf57fe5b9050602002013573ffffffffffffffffffffffffffffffffffffffff16614ee1565b856000815181106138ee57fe5b6020026020010151615680565b61394782878780806020026020016040519081016040528093929190818152602001838360200280828437600081840152601f19601f8201169050808301925050505050505030615139565b600160009054906101000a900473ffffffffffffffffffffffffffffffffffffffff1673ffffffffffffffffffffffffffffffffffffffff16632e1a7d4d8360018551038151811061399557fe5b60200260200101516040518263ffffffff1660e01b815260040180828152602001915050600060405180830381600087803b1580156139d357600080fd5b505af11580156139e7573d6000803e3d6000fd5b50505050613a0c84836001855103815181106139ff57fe5b6020026020010151615538565b509695505050505050565b6000613a24848484615f52565b90509392505050565b60608142811015613aa6576040517f08c379a00000000000000000000000000000000000000000000000000000000081526004018080602001828103825260188152602001807f556e69737761705632526f757465723a2045585049524544000000000000000081525060200191505060405180910390fd5b613b136000809054906101000a900473ffffffffffffffffffffffffffffffffffffffff1689888880806020026020016040519081016040528093929190818152602001838360200280828437600081840152601f19601f820116905080830192505050505050506153cf565b91508682600081518110613b2357fe5b60200260200101511115613b82576040517f08c379a00000000000000000000000000000000000000000000000000000000081526004018080602001828103825260278152602001806169d86027913960400191505060405180910390fd5b613c4886866000818110613b9257fe5b9050602002013573ffffffffffffffffffffffffffffffffffffffff1633613c2e6000809054906101000a900473ffffffffffffffffffffffffffffffffffffffff168a8a6000818110613be257fe5b9050602002013573ffffffffffffffffffffffffffffffffffffffff168b8b6001818110613c0c57fe5b9050602002013573ffffffffffffffffffffffffffffffffffffffff16614ee1565b85600081518110613c3b57fe5b6020026020010151615680565b613c9482878780806020026020016040519081016040528093929190818152602001838360200280828437600081840152601f19601f8201169050808301925050505050505086615139565b509695505050505050565b8042811015613d16576040517f08c379a00000000000000000000000000000000000000000000000000000000081526004018080602001828103825260188152602001807f556e69737761705632526f757465723a2045585049524544000000000000000081525060200191505060405180910390fd5b600160009054906101000a900473ffffffffffffffffffffffffffffffffffffffff1673ffffffffffffffffffffffffffffffffffffffff1685856000818110613d5c57fe5b9050602002013573ffffffffffffffffffffffffffffffffffffffff1673ffffffffffffffffffffffffffffffffffffffff1614613e02576040517f08c379a000000000000000000000000000000000000000000000000000000000815260040180806020018281038252601d8152602001807f556e69737761705632526f757465723a20494e56414c49445f5041544800000081525060200191505060405180910390fd5b6000349050600160009054906101000a900473ffffffffffffffffffffffffffffffffffffffff1673ffffffffffffffffffffffffffffffffffffffff1663d0e30db0826040518263ffffffff1660e01b81526004016000604051808303818588803b158015613e7157600080fd5b505af1158015613e85573d6000803e3d6000fd5b5050505050600160009054906101000a900473ffffffffffffffffffffffffffffffffffffffff1673ffffffffffffffffffffffffffffffffffffffff1663a9059cbb613f466000809054906101000a900473ffffffffffffffffffffffffffffffffffffffff1689896000818110613efa57fe5b9050602002013573ffffffffffffffffffffffffffffffffffffffff168a8a6001818110613f2457fe5b9050602002013573ffffffffffffffffffffffffffffffffffffffff16614ee1565b836040518363ffffffff1660e01b8152600401808373ffffffffffffffffffffffffffffffffffffffff1673ffffffffffffffffffffffffffffffffffffffff16815260200182815260200192505050602060405180830381600087803b158015613fb057600080fd5b505af1158015613fc4573d6000803e3d6000fd5b505050506040513d6020811015613fda57600080fd5b8101908080519060200190929190505050613ff157fe5b600086866001898990500381811061400557fe5b9050602002013573ffffffffffffffffffffffffffffffffffffffff1673ffffffffffffffffffffffffffffffffffffffff166370a08231866040518263ffffffff1660e01b8152600401808273ffffffffffffffffffffffffffffffffffffffff1673ffffffffffffffffffffffffffffffffffffffff16815260200191505060206040518083038186803b15801561409e57600080fd5b505afa1580156140b2573d6000803e3d6000fd5b505050506040513d60208110156140c857600080fd5b81019080805190602001909291905050509050614126878780806020026020016040519081016040528093929190818152602001838360200280828437600081840152601f19601f8201169050808301925050505050505086615891565b8761421f82898960018c8c90500381811061413d57fe5b9050602002013573ffffffffffffffffffffffffffffffffffffffff1673ffffffffffffffffffffffffffffffffffffffff166370a08231896040518263ffffffff1660e01b8152600401808273ffffffffffffffffffffffffffffffffffffffff1673ffffffffffffffffffffffffffffffffffffffff16815260200191505060206040518083038186803b1580156141d657600080fd5b505afa1580156141ea573d6000803e3d6000fd5b505050506040513d602081101561420057600080fd5b8101908080519060200190929190505050615cf390919063ffffffff16565b1015614276576040517f08c379a000000000000000000000000000000000000000000000000000000000815260040180806020018281038252602b815260200180616a59602b913960400191505060405180910390fd5b5050505050505050565b600081428110156142f9576040517f08c379a00000000000000000000000000000000000000000000000000000000081526004018080602001828103825260188152602001807f556e69737761705632526f757465723a2045585049524544000000000000000081525060200191505060405180910390fd5b61432a88600160009054906101000a900473ffffffffffffffffffffffffffffffffffffffff1689898930896144aa565b9050809250506143f288858a73ffffffffffffffffffffffffffffffffffffffff166370a08231306040518263ffffffff1660e01b8152600401808273ffffffffffffffffffffffffffffffffffffffff1673ffffffffffffffffffffffffffffffffffffffff16815260200191505060206040518083038186803b1580156143b257600080fd5b505afa1580156143c6573d6000803e3d6000fd5b505050506040513d60208110156143dc57600080fd5b8101908080519060200190929190505050615d76565b600160009054906101000a900473ffffffffffffffffffffffffffffffffffffffff1673ffffffffffffffffffffffffffffffffffffffff16632e1a7d4d836040518263ffffffff1660e01b815260040180828152602001915050600060405180830381600087803b15801561446757600080fd5b505af115801561447b573d6000803e3d6000fd5b505050506144898483615538565b509695505050505050565b60006144a184848461608f565b90509392505050565b6000808242811015614524576040517f08c379a00000000000000000000000000000000000000000000000000000000081526004018080602001828103825260188152602001807f556e69737761705632526f757465723a2045585049524544000000000000000081525060200191505060405180910390fd5b60006145526000809054906101000a900473ffffffffffffffffffffffffffffffffffffffff168c8c614ee1565b90508073ffffffffffffffffffffffffffffffffffffffff166323b872dd33838c6040518463ffffffff1660e01b8152600401808473ffffffffffffffffffffffffffffffffffffffff1673ffffffffffffffffffffffffffffffffffffffff1681526020018373ffffffffffffffffffffffffffffffffffffffff1673ffffffffffffffffffffffffffffffffffffffff1681526020018281526020019350505050602060405180830381600087803b15801561460f57600080fd5b505af1158015614623573d6000803e3d6000fd5b505050506040513d602081101561463957600080fd5b8101908080519060200190929190505050506000808273ffffffffffffffffffffffffffffffffffffffff166389afcb44896040518263ffffffff1660e01b8152600401808273ffffffffffffffffffffffffffffffffffffffff1673ffffffffffffffffffffffffffffffffffffffff1681526020019150506040805180830381600087803b1580156146cc57600080fd5b505af11580156146e0573d6000803e3d6000fd5b505050506040513d60408110156146f657600080fd5b8101908080519060200190929190805190602001909291905050509150915060006147218e8e616173565b5090508073ffffffffffffffffffffffffffffffffffffffff168e73ffffffffffffffffffffffffffffffffffffffff161461475e578183614761565b82825b80975081985050508a8710156147c2576040517f08c379a0000000000000000000000000000000000000000000000000000000008152600401808060200182810382526026815260200180616a336026913960400191505060405180910390fd5b8986101561481b576040517f08c379a00000000000000000000000000000000000000000000000000000000081526004018080602001828103825260268152602001806169656026913960400191505060405180910390fd5b505050505097509795505050505050565b6000809054906101000a900473ffffffffffffffffffffffffffffffffffffffff1681565b606061487f6000809054906101000a900473ffffffffffffffffffffffffffffffffffffffff168484614fd8565b905092915050565b600160009054906101000a900473ffffffffffffffffffffffffffffffffffffffff1681565b60008060008342811015614929576040517f08c379a00000000000000000000000000000000000000000000000000000000081526004018080602001828103825260188152602001807f556e69737761705632526f757465723a2045585049524544000000000000000081525060200191505060405180910390fd5b6149378c8c8c8c8c8c6162ea565b8094508195505050600061496d6000809054906101000a900473ffffffffffffffffffffffffffffffffffffffff168e8e614ee1565b905061497b8d338388615680565b6149878c338387615680565b8073ffffffffffffffffffffffffffffffffffffffff16636a627842886040518263ffffffff1660e01b8152600401808273ffffffffffffffffffffffffffffffffffffffff1673ffffffffffffffffffffffffffffffffffffffff168152602001915050602060405180830381600087803b158015614a0657600080fd5b505af1158015614a1a573d6000803e3d6000fd5b505050506040513d6020811015614a3057600080fd5b810190808051906020019092919050505092505050985098509895505050505050565b60008060008342811015614acf576040517f08c379a00000000000000000000000000000000000000000000000000000000081526004018080602001828103825260188152602001807f556e69737761705632526f757465723a2045585049524544000000000000000081525060200191505060405180910390fd5b614aff8a600160009054906101000a900473ffffffffffffffffffffffffffffffffffffffff168b348c8c6162ea565b80945081955050506000614b576000809054906101000a900473ffffffffffffffffffffffffffffffffffffffff168c600160009054906101000a900473ffffffffffffffffffffffffffffffffffffffff16614ee1565b9050614b658b338388615680565b600160009054906101000a900473ffffffffffffffffffffffffffffffffffffffff1673ffffffffffffffffffffffffffffffffffffffff1663d0e30db0856040518263ffffffff1660e01b81526004016000604051808303818588803b158015614bcf57600080fd5b505af1158015614be3573d6000803e3d6000fd5b5050505050600160009054906101000a900473ffffffffffffffffffffffffffffffffffffffff1673ffffffffffffffffffffffffffffffffffffffff1663a9059cbb82866040518363ffffffff1660e01b8152600401808373ffffffffffffffffffffffffffffffffffffffff1673ffffffffffffffffffffffffffffffffffffffff16815260200182815260200192505050602060405180830381600087803b158015614c9157600080fd5b505af1158015614ca5573d6000803e3d6000fd5b505050506040513d6020811015614cbb57600080fd5b8101908080519060200190929190505050614cd257fe5b8073ffffffffffffffffffffffffffffffffffffffff16636a627842886040518263ffffffff1660e01b8152600401808273ffffffffffffffffffffffffffffffffffffffff1673ffffffffffffffffffffffffffffffffffffffff168152602001915050602060405180830381600087803b158015614d5157600080fd5b505af1158015614d65573d6000803e3d6000fd5b505050506040513d6020811015614d7b57600080fd5b8101908080519060200190929190505050925083341115614da357614da233853403615538565b5b505096509650969350505050565b6000808411614e0b576040517f08c379a000000000000000000000000000000000000000000000000000000000815260040180806020018281038252602b815260200180616ab1602b913960400191505060405180910390fd5b600083118015614e1b5750600082115b614e70576040517f08c379a000000000000000000000000000000000000000000000000000000000815260040180806020018281038252602881526020018061698b6028913960400191505060405180910390fd5b6000614e876103e5866166a190919063ffffffff16565b90506000614e9e84836166a190919063ffffffff16565b90506000614ec983614ebb6103e8896166a190919063ffffffff16565b61673690919063ffffffff16565b9050808281614ed457fe5b0493505050509392505050565b60008373ffffffffffffffffffffffffffffffffffffffff1663e6a4390584846040518363ffffffff1660e01b8152600401808373ffffffffffffffffffffffffffffffffffffffff1673ffffffffffffffffffffffffffffffffffffffff1681526020018273ffffffffffffffffffffffffffffffffffffffff1673ffffffffffffffffffffffffffffffffffffffff1681526020019250505060206040518083038186803b158015614f9457600080fd5b505afa158015614fa8573d6000803e3d6000fd5b505050506040513d6020811015614fbe57600080fd5b810190808051906020019092919050505090509392505050565b6060600282511015615052576040517f08c379a000000000000000000000000000000000000000000000000000000000815260040180806020018281038252601e8152602001807f556e697377617056324c6962726172793a20494e56414c49445f50415448000081525060200191505060405180910390fd5b81516040519080825280602002602001820160405280156150825781602001602082028038833980820191505090505b509050828160008151811061509357fe5b60200260200101818152505060005b6001835103811015615131576000806150e5878685815181106150c157fe5b60200260200101518760018701815181106150d857fe5b60200260200101516167b9565b915091506151078484815181106150f857fe5b60200260200101518383614db1565b84600185018151811061511657fe5b602002602001018181525050505080806001019150506150a2565b509392505050565b60005b60018351038110156153c95760008084838151811061515757fe5b602002602001015185600185018151811061516e57fe5b60200260200101519150915060006151868383616173565b509050600087600186018151811061519a57fe5b602002602001015190506000808373ffffffffffffffffffffffffffffffffffffffff168673ffffffffffffffffffffffffffffffffffffffff16146151e2578260006151e6565b6000835b91509150600060028a510388106151fd5788615240565b61523f6000809054906101000a900473ffffffffffffffffffffffffffffffffffffffff16878c60028c018151811061523257fe5b6020026020010151614ee1565b5b905061526e6000809054906101000a900473ffffffffffffffffffffffffffffffffffffffff168888614ee1565b73ffffffffffffffffffffffffffffffffffffffff1663022c0d9f84848460006040519080825280601f01601f1916602001820160405280156152c05781602001600182028038833980820191505090505b506040518563ffffffff1660e01b8152600401808581526020018481526020018373ffffffffffffffffffffffffffffffffffffffff1673ffffffffffffffffffffffffffffffffffffffff16815260200180602001828103825283818151815260200191508051906020019080838360005b8381101561534e578082015181840152602081019050615333565b50505050905090810190601f16801561537b5780820380516001836020036101000a031916815260200191505b5095505050505050600060405180830381600087803b15801561539d57600080fd5b505af11580156153b1573d6000803e3d6000fd5b5050505050505050505050808060010191505061513c565b50505050565b6060600282511015615449576040517f08c379a000000000000000000000000000000000000000000000000000000000815260040180806020018281038252601e8152602001807f556e697377617056324c6962726172793a20494e56414c49445f50415448000081525060200191505060405180910390fd5b81516040519080825280602002602001820160405280156154795781602001602082028038833980820191505090505b509050828160018351038151811061548d57fe5b6020026020010181815250506000600183510390505b6000811115615530576000806154e3878660018603815181106154c257fe5b60200260200101518786815181106154d657fe5b60200260200101516167b9565b915091506155058484815181106154f657fe5b60200260200101518383615f52565b84600185038151811061551457fe5b60200260200101818152505050508080600190039150506154a3565b509392505050565b60008273ffffffffffffffffffffffffffffffffffffffff168260006040519080825280601f01601f1916602001820160405280156155865781602001600182028038833980820191505090505b506040518082805190602001908083835b602083106155ba5780518252602082019150602081019050602083039250615597565b6001836020036101000a03801982511681845116808217855250505050505090500191505060006040518083038185875af1925050503d806000811461561c576040519150601f19603f3d011682016040523d82523d6000602084013e615621565b606091505b505090508061567b576040517f08c379a00000000000000000000000000000000000000000000000000000000081526004018080602001828103825260348152602001806169ff6034913960400191505060405180910390fd5b505050565b600060608573ffffffffffffffffffffffffffffffffffffffff166323b872dd868686604051602401808473ffffffffffffffffffffffffffffffffffffffff1673ffffffffffffffffffffffffffffffffffffffff1681526020018373ffffffffffffffffffffffffffffffffffffffff1673ffffffffffffffffffffffffffffffffffffffff16815260200182815260200193505050506040516020818303038152906040529060e01b6020820180517bffffffffffffffffffffffffffffffffffffffffffffffffffffffff83818316178352505050506040518082805190602001908083835b6020831061578d578051825260208201915060208101905060208303925061576a565b6001836020036101000a0380198251168184511680821785525050505050509050019150506000604051808303816000865af19150503d80600081146157ef576040519150601f19603f3d011682016040523d82523d6000602084013e6157f4565b606091505b50915091508180156158345750600081511480615833575080806020019051602081101561582157600080fd5b81019080805190602001909291905050505b5b615889576040517f08c379a000000000000000000000000000000000000000000000000000000000815260040180806020018281038252603181526020018061690f6031913960400191505060405180910390fd5b505050505050565b60005b6001835103811015615cee576000808483815181106158af57fe5b60200260200101518560018501815181106158c657fe5b60200260200101519150915060006158de8383616173565b509050600061590f6000809054906101000a900473ffffffffffffffffffffffffffffffffffffffff168585614ee1565b90506000806000808473ffffffffffffffffffffffffffffffffffffffff16630902f1ac6040518163ffffffff1660e01b815260040160606040518083038186803b15801561595d57600080fd5b505afa158015615971573d6000803e3d6000fd5b505050506040513d606081101561598757600080fd5b81019080805190602001909291908051906020019092919080519060200190929190505050506dffffffffffffffffffffffffffff1691506dffffffffffffffffffffffffffff1691506000808773ffffffffffffffffffffffffffffffffffffffff168a73ffffffffffffffffffffffffffffffffffffffff1614615a0e578284615a11565b83835b91509150615adf828b73ffffffffffffffffffffffffffffffffffffffff166370a082318a6040518263ffffffff1660e01b8152600401808273ffffffffffffffffffffffffffffffffffffffff1673ffffffffffffffffffffffffffffffffffffffff16815260200191505060206040518083038186803b158015615a9657600080fd5b505afa158015615aaa573d6000803e3d6000fd5b505050506040513d6020811015615ac057600080fd5b8101908080519060200190929190505050615cf390919063ffffffff16565b9550615aec868383614db1565b9450505050506000808573ffffffffffffffffffffffffffffffffffffffff168873ffffffffffffffffffffffffffffffffffffffff1614615b3057826000615b34565b6000835b91509150600060028c51038a10615b4b578a615b8e565b615b8d6000809054906101000a900473ffffffffffffffffffffffffffffffffffffffff16898e60028e0181518110615b8057fe5b6020026020010151614ee1565b5b90508573ffffffffffffffffffffffffffffffffffffffff1663022c0d9f84848460006040519080825280601f01601f191660200182016040528015615be35781602001600182028038833980820191505090505b506040518563ffffffff1660e01b8152600401808581526020018481526020018373ffffffffffffffffffffffffffffffffffffffff1673ffffffffffffffffffffffffffffffffffffffff16815260200180602001828103825283818151815260200191508051906020019080838360005b83811015615c71578082015181840152602081019050615c56565b50505050905090810190601f168015615c9e5780820380516001836020036101000a031916815260200191505b5095505050505050600060405180830381600087803b158015615cc057600080fd5b505af1158015615cd4573d6000803e3d6000fd5b505050505050505050505050508080600101915050615894565b505050565b6000828284039150811115615d70576040517f08c379a00000000000000000000000000000000000000000000000000000000081526004018080602001828103825260158152602001807f64732d6d6174682d7375622d756e646572666c6f77000000000000000000000081525060200191505060405180910390fd5b92915050565b600060608473ffffffffffffffffffffffffffffffffffffffff1663a9059cbb8585604051602401808373ffffffffffffffffffffffffffffffffffffffff1673ffffffffffffffffffffffffffffffffffffffff168152602001828152602001925050506040516020818303038152906040529060e01b6020820180517bffffffffffffffffffffffffffffffffffffffffffffffffffffffff83818316178352505050506040518082805190602001908083835b60208310615e4f5780518252602082019150602081019050602083039250615e2c565b6001836020036101000a0380198251168184511680821785525050505050509050019150506000604051808303816000865af19150503d8060008114615eb1576040519150601f19603f3d011682016040523d82523d6000602084013e615eb6565b606091505b5091509150818015615ef65750600081511480615ef55750808060200190516020811015615ee357600080fd5b81019080805190602001909291905050505b5b615f4b576040517f08c379a000000000000000000000000000000000000000000000000000000000815260040180806020018281038252602d815260200180616a84602d913960400191505060405180910390fd5b5050505050565b6000808411615fac576040517f08c379a000000000000000000000000000000000000000000000000000000000815260040180806020018281038252602c8152602001806168e3602c913960400191505060405180910390fd5b600083118015615fbc5750600082115b616011576040517f08c379a000000000000000000000000000000000000000000000000000000000815260040180806020018281038252602881526020018061698b6028913960400191505060405180910390fd5b600061603a6103e861602c87876166a190919063ffffffff16565b6166a190919063ffffffff16565b905060006160656103e56160578887615cf390919063ffffffff16565b6166a190919063ffffffff16565b9050616084600182848161607557fe5b0461673690919063ffffffff16565b925050509392505050565b60008084116160e9576040517f08c379a00000000000000000000000000000000000000000000000000000000081526004018080602001828103825260258152602001806169b36025913960400191505060405180910390fd5b6000831180156160f95750600082115b61614e576040517f08c379a000000000000000000000000000000000000000000000000000000000815260040180806020018281038252602881526020018061698b6028913960400191505060405180910390fd5b8261616283866166a190919063ffffffff16565b8161616957fe5b0490509392505050565b6000808273ffffffffffffffffffffffffffffffffffffffff168473ffffffffffffffffffffffffffffffffffffffff1614156161fb576040517f08c379a00000000000000000000000000000000000000000000000000000000081526004018080602001828103825260258152602001806169406025913960400191505060405180910390fd5b8273ffffffffffffffffffffffffffffffffffffffff168473ffffffffffffffffffffffffffffffffffffffff1610616235578284616238565b83835b8092508193505050600073ffffffffffffffffffffffffffffffffffffffff168273ffffffffffffffffffffffffffffffffffffffff1614156162e3576040517f08c379a000000000000000000000000000000000000000000000000000000000815260040180806020018281038252601e8152602001807f556e697377617056324c6962726172793a205a45524f5f41444452455353000081525060200191505060405180910390fd5b9250929050565b600080600073ffffffffffffffffffffffffffffffffffffffff166000809054906101000a900473ffffffffffffffffffffffffffffffffffffffff1673ffffffffffffffffffffffffffffffffffffffff1663e6a439058a8a6040518363ffffffff1660e01b8152600401808373ffffffffffffffffffffffffffffffffffffffff1673ffffffffffffffffffffffffffffffffffffffff1681526020018273ffffffffffffffffffffffffffffffffffffffff1673ffffffffffffffffffffffffffffffffffffffff1681526020019250505060206040518083038186803b1580156163d757600080fd5b505afa1580156163eb573d6000803e3d6000fd5b505050506040513d602081101561640157600080fd5b810190808051906020019092919050505073ffffffffffffffffffffffffffffffffffffffff16141561653f576000809054906101000a900473ffffffffffffffffffffffffffffffffffffffff1673ffffffffffffffffffffffffffffffffffffffff1663c9c6539689896040518363ffffffff1660e01b8152600401808373ffffffffffffffffffffffffffffffffffffffff1673ffffffffffffffffffffffffffffffffffffffff1681526020018273ffffffffffffffffffffffffffffffffffffffff1673ffffffffffffffffffffffffffffffffffffffff16815260200192505050602060405180830381600087803b15801561650257600080fd5b505af1158015616516573d6000803e3d6000fd5b505050506040513d602081101561652c57600080fd5b8101908080519060200190929190505050505b60008061656e6000809054906101000a900473ffffffffffffffffffffffffffffffffffffffff168b8b6167b9565b915091506000821480156165825750600081145b156165965787878094508195505050616694565b60006165a389848461608f565b90508781116166145785811015616605576040517f08c379a00000000000000000000000000000000000000000000000000000000081526004018080602001828103825260268152602001806169656026913960400191505060405180910390fd5b88818095508196505050616692565b600061662189848661608f565b90508981111561662d57fe5b87811015616686576040517f08c379a0000000000000000000000000000000000000000000000000000000008152600401808060200182810382526026815260200180616a336026913960400191505060405180910390fd5b80898096508197505050505b505b5050965096945050505050565b6000808214806166be57508282838502925082816166bb57fe5b04145b616730576040517f08c379a00000000000000000000000000000000000000000000000000000000081526004018080602001828103825260148152602001807f64732d6d6174682d6d756c2d6f766572666c6f7700000000000000000000000081525060200191505060405180910390fd5b92915050565b60008282840191508110156167b3576040517f08c379a00000000000000000000000000000000000000000000000000000000081526004018080602001828103825260148152602001807f64732d6d6174682d6164642d6f766572666c6f7700000000000000000000000081525060200191505060405180910390fd5b92915050565b60008060006167c88585616173565b5090506000806167d9888888614ee1565b73ffffffffffffffffffffffffffffffffffffffff16630902f1ac6040518163ffffffff1660e01b815260040160606040518083038186803b15801561681e57600080fd5b505afa158015616832573d6000803e3d6000fd5b505050506040513d606081101561684857600080fd5b81019080805190602001909291908051906020019092919080519060200190929190505050506dffffffffffffffffffffffffffff1691506dffffffffffffffffffffffffffff1691508273ffffffffffffffffffffffffffffffffffffffff168773ffffffffffffffffffffffffffffffffffffffff16146168cc5780826168cf565b81815b809550819650505050505093509391505056fe556e697377617056324c6962726172793a20494e53554646494349454e545f4f55545055545f414d4f554e545472616e7366657248656c7065723a3a7472616e7366657246726f6d3a207472616e7366657246726f6d206661696c6564556e697377617056324c6962726172793a204944454e544943414c5f414444524553534553556e69737761705632526f757465723a20494e53554646494349454e545f425f414d4f554e54556e697377617056324c6962726172793a20494e53554646494349454e545f4c4951554944495459556e697377617056324c6962726172793a20494e53554646494349454e545f414d4f554e54556e69737761705632526f757465723a204558434553534956455f494e5055545f414d4f554e545472616e7366657248656c7065723a3a736166655472616e736665725452583a20545258207472616e73666572206661696c6564556e69737761705632526f757465723a20494e53554646494349454e545f415f414d4f554e54556e69737761705632526f757465723a20494e53554646494349454e545f4f55545055545f414d4f554e545472616e7366657248656c7065723a3a736166655472616e736665723a207472616e73666572206661696c6564556e697377617056324c6962726172793a20494e53554646494349454e545f494e5055545f414d4f554e54a26469706673582212207c05d36b205d60b05b30281e3d6729fa27d8957138f08daabc1222f955069d5264736f6c63430006000033",
  "source": "pragma solidity =0.6.0;\n\nimport './interfaces/IUniswapV2Factory.sol';\nimport './libraries/TransferHelper.sol';\n\nimport './interfaces/IUniswapV2Router02.sol';\nimport './libraries/UniswapV2Library.sol';\nimport './libraries/SafeMath.sol';\nimport './interfaces/IERC20.sol';\nimport './interfaces/IWTRX.sol';\nimport \"./libraries/IUniswapV2Pair.sol\";\n\ncontract UniswapV2Router02 is IUniswapV2Router02 {\n    using SafeMath for uint;\n\n    address public override factory;\n    address public override WTRX;\n\n    modifier ensure(uint deadline) {\n        require(deadline >= block.timestamp, 'UniswapV2Router: EXPIRED');\n        _;\n    }\n\n    constructor(address _factory, address _WTRX) public {\n        factory = _factory;\n        WTRX = _WTRX;\n    }\n\n    receive() external payable {\n        assert(msg.sender == WTRX); // only accept TRX via fallback from the WTRX contract\n    }\n\n    // MOD(tron): receive() not supported by TVM but fallback() is\n    fallback() external payable {\n        assert(msg.sender == WTRX); // only accept TRX via fallback from the WTRX contract\n    }\n\n    // **** ADD LIQUIDITY ****\n    function _addLiquidity(\n        address tokenA,\n        address tokenB,\n        uint amountADesired,\n        uint amountBDesired,\n        uint amountAMin,\n        uint amountBMin\n    ) internal virtual returns (uint amountA, uint amountB) {\n        // create the pair if it doesn't exist yet\n        if (IUniswapV2Factory(factory).getPair(tokenA, tokenB) == address(0)) {\n            IUniswapV2Factory(factory).createPair(tokenA, tokenB);\n        }\n        (uint reserveA, uint reserveB) = UniswapV2Library.getReserves(factory, tokenA, tokenB);\n        if (reserveA == 0 && reserveB == 0) {\n            (amountA, amountB) = (amountADesired, amountBDesired);\n        } else {\n            uint amountBOptimal = UniswapV2Library.quote(amountADesired, reserveA, reserveB);\n            if (amountBOptimal <= amountBDesired) {\n                require(amountBOptimal >= amountBMin, 'UniswapV2Router: INSUFFICIENT_B_AMOUNT');\n                (amountA, amountB) = (amountADesired, amountBOptimal);\n            } else {\n                uint amountAOptimal = UniswapV2Library.quote(amountBDesired, reserveB, reserveA);\n                assert(amountAOptimal <= amountADesired);\n                require(amountAOptimal >= amountAMin, 'UniswapV2Router: INSUFFICIENT_A_AMOUNT');\n                (amountA, amountB) = (amountAOptimal, amountBDesired);\n            }\n        }\n    }\n    function addLiquidity(\n        address tokenA,\n        address tokenB,\n        uint amountADesired,\n        uint amountBDesired,\n        uint amountAMin,\n        uint amountBMin,\n        address to,\n        uint deadline\n    ) external virtual override ensure(deadline) returns (uint amountA, uint amountB, uint liquidity) {\n        (amountA, amountB) = _addLiquidity(tokenA, tokenB, amountADesired, amountBDesired, amountAMin, amountBMin);\n        address pair = UniswapV2Library.pairFor(factory, tokenA, tokenB);\n        TransferHelper.safeTransferFrom(tokenA, msg.sender, pair, amountA);\n        TransferHelper.safeTransferFrom(tokenB, msg.sender, pair, amountB);\n        liquidity = IUniswapV2Pair(pair).mint(to);\n    }\n    function addLiquidityTRX(\n        address token,\n        uint amountTokenDesired,\n        uint amountTokenMin,\n        uint amountTRXMin,\n        address to,\n        uint deadline\n    ) external virtual override payable ensure(deadline) returns (uint amountToken, uint amountTRX, uint liquidity) {\n        (amountToken, amountTRX) = _addLiquidity(\n            token,\n            WTRX,\n            amountTokenDesired,\n            msg.value,\n            amountTokenMin,\n            amountTRXMin\n        );\n        address pair = UniswapV2Library.pairFor(factory, token, WTRX);\n        TransferHelper.safeTransferFrom(token, msg.sender, pair, amountToken);\n        IWTRX(WTRX).deposit.value(amountTRX)();\n        assert(IWTRX(WTRX).transfer(pair, amountTRX));\n        liquidity = IUniswapV2Pair(pair).mint(to);\n        // refund dust trx, if any\n        if (msg.value > amountTRX) TransferHelper.safeTransferTRX(msg.sender, msg.value - amountTRX);\n    }\n\n    // **** REMOVE LIQUIDITY ****\n    function removeLiquidity(\n        address tokenA,\n        address tokenB,\n        uint liquidity,\n        uint amountAMin,\n        uint amountBMin,\n        address to,\n        uint deadline\n    ) public virtual override ensure(deadline) returns (uint amountA, uint amountB) {\n        address pair = UniswapV2Library.pairFor(factory, tokenA, tokenB);\n        IUniswapV2Pair(pair).transferFrom(msg.sender, pair, liquidity); // send liquidity to pair\n        (uint amount0, uint amount1) = IUniswapV2Pair(pair).burn(to);\n        (address token0,) = UniswapV2Library.sortTokens(tokenA, tokenB);\n        (amountA, amountB) = tokenA == token0 ? (amount0, amount1) : (amount1, amount0);\n        require(amountA >= amountAMin, 'UniswapV2Router: INSUFFICIENT_A_AMOUNT');\n        require(amountB >= amountBMin, 'UniswapV2Router: INSUFFICIENT_B_AMOUNT');\n    }\n    function removeLiquidityTRX(\n        address token,\n        uint liquidity,\n        uint amountTokenMin,\n        uint amountTRXMin,\n        address to,\n        uint deadline\n    ) public virtual override ensure(deadline) returns (uint amountToken, uint amountTRX) {\n        (amountToken, amountTRX) = removeLiquidity(\n            token,\n            WTRX,\n            liquidity,\n            amountTokenMin,\n            amountTRXMin,\n            address(this),\n            deadline\n        );\n        TransferHelper.safeTransfer(token, to, amountToken);\n        IWTRX(WTRX).withdraw(amountTRX);\n        TransferHelper.safeTransferTRX(to, amountTRX);\n    }\n    function removeLiquidityWithPermit(\n        address tokenA,\n        address tokenB,\n        uint liquidity,\n        uint amountAMin,\n        uint amountBMin,\n        address to,\n        uint deadline,\n        bool approveMax, uint8 v, bytes32 r, bytes32 s\n    ) external virtual override returns (uint amountA, uint amountB) {\n        address pair = UniswapV2Library.pairFor(factory, tokenA, tokenB);\n        uint value = approveMax ? uint(-1) : liquidity;\n        IUniswapV2Pair(pair).permit(msg.sender, address(this), value, deadline, v, r, s);\n        (amountA, amountB) = removeLiquidity(tokenA, tokenB, liquidity, amountAMin, amountBMin, to, deadline);\n    }\n    function removeLiquidityTRXWithPermit(\n        address token,\n        uint liquidity,\n        uint amountTokenMin,\n        uint amountTRXMin,\n        address to,\n        uint deadline,\n        bool approveMax, uint8 v, bytes32 r, bytes32 s\n    ) external virtual override returns (uint amountToken, uint amountTRX) {\n        address pair = UniswapV2Library.pairFor(factory, token, WTRX);\n        uint value = approveMax ? uint(-1) : liquidity;\n        IUniswapV2Pair(pair).permit(msg.sender, address(this), value, deadline, v, r, s);\n        (amountToken, amountTRX) = removeLiquidityTRX(token, liquidity, amountTokenMin, amountTRXMin, to, deadline);\n    }\n\n    // **** REMOVE LIQUIDITY (supporting fee-on-transfer tokens) ****\n    function removeLiquidityTRXSupportingFeeOnTransferTokens(\n        address token,\n        uint liquidity,\n        uint amountTokenMin,\n        uint amountTRXMin,\n        address to,\n        uint deadline\n    ) public virtual override ensure(deadline) returns (uint amountTRX) {\n        (, amountTRX) = removeLiquidity(\n            token,\n            WTRX,\n            liquidity,\n            amountTokenMin,\n            amountTRXMin,\n            address(this),\n            deadline\n        );\n        TransferHelper.safeTransfer(token, to, IERC20(token).balanceOf(address(this)));\n        IWTRX(WTRX).withdraw(amountTRX);\n        TransferHelper.safeTransferTRX(to, amountTRX);\n    }\n    function removeLiquidityTRXWithPermitSupportingFeeOnTransferTokens(\n        address token,\n        uint liquidity,\n        uint amountTokenMin,\n        uint amountTRXMin,\n        address to,\n        uint deadline,\n        bool approveMax, uint8 v, bytes32 r, bytes32 s\n    ) external virtual override returns (uint amountTRX) {\n        address pair = UniswapV2Library.pairFor(factory, token, WTRX);\n        uint value = approveMax ? uint(-1) : liquidity;\n        IUniswapV2Pair(pair).permit(msg.sender, address(this), value, deadline, v, r, s);\n        amountTRX = removeLiquidityTRXSupportingFeeOnTransferTokens(\n            token, liquidity, amountTokenMin, amountTRXMin, to, deadline\n        );\n    }\n\n    // **** SWAP ****\n    // requires the initial amount to have already been sent to the first pair\n    function _swap(uint[] memory amounts, address[] memory path, address _to) internal virtual {\n        for (uint i; i < path.length - 1; i++) {\n            (address input, address output) = (path[i], path[i + 1]);\n            (address token0,) = UniswapV2Library.sortTokens(input, output);\n            uint amountOut = amounts[i + 1];\n            (uint amount0Out, uint amount1Out) = input == token0 ? (uint(0), amountOut) : (amountOut, uint(0));\n            address to = i < path.length - 2 ? UniswapV2Library.pairFor(factory, output, path[i + 2]) : _to;\n            IUniswapV2Pair(UniswapV2Library.pairFor(factory, input, output)).swap(\n                amount0Out, amount1Out, to, new bytes(0)\n            );\n        }\n    }\n    function swapExactTokensForTokens(\n        uint amountIn,\n        uint amountOutMin,\n        address[] calldata path,\n        address to,\n        uint deadline\n    ) external virtual override ensure(deadline) returns (uint[] memory amounts) {\n        amounts = UniswapV2Library.getAmountsOut(factory, amountIn, path);\n        require(amounts[amounts.length - 1] >= amountOutMin, 'UniswapV2Router: INSUFFICIENT_OUTPUT_AMOUNT');\n        TransferHelper.safeTransferFrom(\n            path[0], msg.sender, UniswapV2Library.pairFor(factory, path[0], path[1]), amounts[0]\n        );\n        _swap(amounts, path, to);\n    }\n    function swapTokensForExactTokens(\n        uint amountOut,\n        uint amountInMax,\n        address[] calldata path,\n        address to,\n        uint deadline\n    ) external virtual override ensure(deadline) returns (uint[] memory amounts) {\n        amounts = UniswapV2Library.getAmountsIn(factory, amountOut, path);\n        require(amounts[0] <= amountInMax, 'UniswapV2Router: EXCESSIVE_INPUT_AMOUNT');\n        TransferHelper.safeTransferFrom(\n            path[0], msg.sender, UniswapV2Library.pairFor(factory, path[0], path[1]), amounts[0]\n        );\n        _swap(amounts, path, to);\n    }\n    function swapExactTRXForTokens(uint amountOutMin, address[] calldata path, address to, uint deadline)\n        external\n        virtual\n        override\n        payable\n        ensure(deadline)\n        returns (uint[] memory amounts)\n    {\n        require(path[0] == WTRX, 'UniswapV2Router: INVALID_PATH');\n        amounts = UniswapV2Library.getAmountsOut(factory, msg.value, path);\n        require(amounts[amounts.length - 1] >= amountOutMin, 'UniswapV2Router: INSUFFICIENT_OUTPUT_AMOUNT');\n        IWTRX(WTRX).deposit.value(amounts[0])();\n        assert(IWTRX(WTRX).transfer(UniswapV2Library.pairFor(factory, path[0], path[1]), amounts[0]));\n        _swap(amounts, path, to);\n    }\n    function swapTokensForExactTRX(uint amountOut, uint amountInMax, address[] calldata path, address to, uint deadline)\n        external\n        virtual\n        override\n        ensure(deadline)\n        returns (uint[] memory amounts)\n    {\n        require(path[path.length - 1] == WTRX, 'UniswapV2Router: INVALID_PATH');\n        amounts = UniswapV2Library.getAmountsIn(factory, amountOut, path);\n        require(amounts[0] <= amountInMax, 'UniswapV2Router: EXCESSIVE_INPUT_AMOUNT');\n        TransferHelper.safeTransferFrom(\n            path[0], msg.sender, UniswapV2Library.pairFor(factory, path[0], path[1]), amounts[0]\n        );\n        _swap(amounts, path, address(this));\n        IWTRX(WTRX).withdraw(amounts[amounts.length - 1]);\n        TransferHelper.safeTransferTRX(to, amounts[amounts.length - 1]);\n    }\n    function swapExactTokensForTRX(uint amountIn, uint amountOutMin, address[] calldata path, address to, uint deadline)\n        external\n        virtual\n        override\n        ensure(deadline)\n        returns (uint[] memory amounts)\n    {\n        require(path[path.length - 1] == WTRX, 'UniswapV2Router: INVALID_PATH');\n        amounts = UniswapV2Library.getAmountsOut(factory, amountIn, path);\n        require(amounts[amounts.length - 1] >= amountOutMin, 'UniswapV2Router: INSUFFICIENT_OUTPUT_AMOUNT');\n        TransferHelper.safeTransferFrom(\n            path[0], msg.sender, UniswapV2Library.pairFor(factory, path[0], path[1]), amounts[0]\n        );\n        _swap(amounts, path, address(this));\n        IWTRX(WTRX).withdraw(amounts[amounts.length - 1]);\n        TransferHelper.safeTransferTRX(to, amounts[amounts.length - 1]);\n    }\n    function swapTRXForExactTokens(uint amountOut, address[] calldata path, address to, uint deadline)\n        external\n        virtual\n        override\n        payable\n        ensure(deadline)\n        returns (uint[] memory amounts)\n    {\n        require(path[0] == WTRX, 'UniswapV2Router: INVALID_PATH');\n        amounts = UniswapV2Library.getAmountsIn(factory, amountOut, path);\n        require(amounts[0] <= msg.value, 'UniswapV2Router: EXCESSIVE_INPUT_AMOUNT');\n        IWTRX(WTRX).deposit.value(amounts[0])();\n        assert(IWTRX(WTRX).transfer(UniswapV2Library.pairFor(factory, path[0], path[1]), amounts[0]));\n        _swap(amounts, path, to);\n        // refund dust eth, if any\n        if (msg.value > amounts[0]) TransferHelper.safeTransferTRX(msg.sender, msg.value - amounts[0]);\n    }\n\n\n\n\n\n    // **** SWAP (supporting fee-on-transfer tokens) comment  ****\n    // requires the initial amount to have already been sent to the first pair\n    function _swapSupportingFeeOnTransferTokens(address[] memory path, address _to) internal virtual {\n        for (uint i; i < path.length - 1; i++) {\n            (address input, address output) = (path[i], path[i + 1]);\n            (address token0,) = UniswapV2Library.sortTokens(input, output);\n            IUniswapV2Pair pair = IUniswapV2Pair(UniswapV2Library.pairFor(factory, input, output));\n            uint amountInput;\n            uint amountOutput;\n            { // scope to avoid stack too deep errors\n            (uint reserve0, uint reserve1,) = pair.getReserves();\n            (uint reserveInput, uint reserveOutput) = input == token0 ? (reserve0, reserve1) : (reserve1, reserve0);\n            amountInput = IERC20(input).balanceOf(address(pair)).sub(reserveInput);\n            amountOutput = UniswapV2Library.getAmountOut(amountInput, reserveInput, reserveOutput);\n            }\n            (uint amount0Out, uint amount1Out) = input == token0 ? (uint(0), amountOutput) : (amountOutput, uint(0));\n            address to = i < path.length - 2 ? UniswapV2Library.pairFor(factory, output, path[i + 2]) : _to;\n            pair.swap(amount0Out, amount1Out, to, new bytes(0));\n        }\n    }\n    function swapExactTokensForTokensSupportingFeeOnTransferTokens(\n        uint amountIn,\n        uint amountOutMin,\n        address[] calldata path,\n        address to,\n        uint deadline\n    ) external virtual override ensure(deadline) {\n        TransferHelper.safeTransferFrom(\n            path[0], msg.sender, UniswapV2Library.pairFor(factory, path[0], path[1]), amountIn\n        );\n        uint balanceBefore = IERC20(path[path.length - 1]).balanceOf(to);\n        _swapSupportingFeeOnTransferTokens(path, to);\n        require(\n            IERC20(path[path.length - 1]).balanceOf(to).sub(balanceBefore) >= amountOutMin,\n            'UniswapV2Router: INSUFFICIENT_OUTPUT_AMOUNT'\n        );\n    }\n    function swapExactTRXForTokensSupportingFeeOnTransferTokens(\n        uint amountOutMin,\n        address[] calldata path,\n        address to,\n        uint deadline\n    )\n        external\n        virtual\n        override\n        payable\n        ensure(deadline)\n    {\n        require(path[0] == WTRX, 'UniswapV2Router: INVALID_PATH');\n        uint amountIn = msg.value;\n        IWTRX(WTRX).deposit.value(amountIn)();\n        assert(IWTRX(WTRX).transfer(UniswapV2Library.pairFor(factory, path[0], path[1]), amountIn));\n        uint balanceBefore = IERC20(path[path.length - 1]).balanceOf(to);\n        _swapSupportingFeeOnTransferTokens(path, to);\n        require(\n            IERC20(path[path.length - 1]).balanceOf(to).sub(balanceBefore) >= amountOutMin,\n            'UniswapV2Router: INSUFFICIENT_OUTPUT_AMOUNT'\n        );\n    }\n    function swapExactTokensForTRXSupportingFeeOnTransferTokens(\n        uint amountIn,\n        uint amountOutMin,\n        address[] calldata path,\n        address to,\n        uint deadline\n    )\n        external\n        virtual\n        override\n        ensure(deadline)\n    {\n        require(path[path.length - 1] == WTRX, 'UniswapV2Router: INVALID_PATH');\n        TransferHelper.safeTransferFrom(\n            path[0], msg.sender, UniswapV2Library.pairFor(factory, path[0], path[1]), amountIn\n        );\n        _swapSupportingFeeOnTransferTokens(path, address(this));\n        uint amountOut = IERC20(WTRX).balanceOf(address(this));\n        require(amountOut >= amountOutMin, 'UniswapV2Router: INSUFFICIENT_OUTPUT_AMOUNT');\n        IWTRX(WTRX).withdraw(amountOut);\n        TransferHelper.safeTransferTRX(to, amountOut);\n    }\n\n\n\n\n\n\n\n\n    // **** LIBRARY FUNCTIONS ****\n    function quote(uint amountA, uint reserveA, uint reserveB) public pure virtual override returns (uint amountB) {\n        return UniswapV2Library.quote(amountA, reserveA, reserveB);\n    }\n\n    function getAmountOut(uint amountIn, uint reserveIn, uint reserveOut)\n        public\n        pure\n        virtual\n        override\n        returns (uint amountOut)\n    {\n        return UniswapV2Library.getAmountOut(amountIn, reserveIn, reserveOut);\n    }\n\n    function getAmountIn(uint amountOut, uint reserveIn, uint reserveOut)\n        public\n        pure\n        virtual\n        override\n        returns (uint amountIn)\n    {\n        return UniswapV2Library.getAmountIn(amountOut, reserveIn, reserveOut);\n    }\n\n    function getAmountsOut(uint amountIn, address[] memory path)\n        public\n        view\n        virtual\n        override\n        returns (uint[] memory amounts)\n    {\n        return UniswapV2Library.getAmountsOut(factory, amountIn, path);\n    }\n\n    function getAmountsIn(uint amountOut, address[] memory path)\n        public\n        view\n        virtual\n        override\n        returns (uint[] memory amounts)\n    {\n        return UniswapV2Library.getAmountsIn(factory, amountOut, path);\n    }\n}\n",
  "sourcePath": "/Users/kaionyan/projects/mcswap/mcswap-v2-periphery/contracts/UniswapV2Router02.sol",
  "compiler": {
    "name": "solc",
    "version": "0.6.0+commit.f8669616.Emscripten.clang"
  },
  "schemaVersion": "2.0.1",
  "updatedAt": "2021-06-11T07:42:30.743Z"
}